{
  "contractName": "Election",
  "abi": [
    {
      "inputs": [],
      "payable": false,
      "stateMutability": "nonpayable",
      "type": "constructor"
    },
    {
      "anonymous": false,
      "inputs": [
        {
          "indexed": true,
          "internalType": "address",
          "name": "previousOwner",
          "type": "address"
        },
        {
          "indexed": true,
          "internalType": "address",
          "name": "newOwner",
          "type": "address"
        }
      ],
      "name": "OwnershipTransferred",
      "type": "event"
    },
    {
      "anonymous": false,
      "inputs": [
        {
          "indexed": true,
          "internalType": "uint16",
          "name": "_candidateId",
          "type": "uint16"
        }
      ],
      "name": "votedEvent",
      "type": "event"
    },
    {
      "constant": true,
      "inputs": [
        {
          "internalType": "uint16",
          "name": "",
          "type": "uint16"
        }
      ],
      "name": "candidates",
      "outputs": [
        {
          "internalType": "string",
          "name": "name",
          "type": "string"
        },
        {
          "internalType": "string",
          "name": "party",
          "type": "string"
        },
        {
          "internalType": "uint16",
          "name": "id",
          "type": "uint16"
        },
        {
          "internalType": "uint32",
          "name": "voteCount",
          "type": "uint32"
        }
      ],
      "payable": false,
      "stateMutability": "view",
      "type": "function"
    },
    {
      "constant": true,
      "inputs": [],
      "name": "candidatesCount",
      "outputs": [
        {
          "internalType": "uint16",
          "name": "",
          "type": "uint16"
        }
      ],
      "payable": false,
      "stateMutability": "view",
      "type": "function"
    },
    {
      "constant": true,
      "inputs": [
        {
          "internalType": "address",
          "name": "",
          "type": "address"
        }
      ],
      "name": "hasVoted",
      "outputs": [
        {
          "internalType": "bool",
          "name": "",
          "type": "bool"
        }
      ],
      "payable": false,
      "stateMutability": "view",
      "type": "function"
    },
    {
      "constant": true,
      "inputs": [],
      "name": "isOwner",
      "outputs": [
        {
          "internalType": "bool",
          "name": "",
          "type": "bool"
        }
      ],
      "payable": false,
      "stateMutability": "view",
      "type": "function"
    },
    {
      "constant": true,
      "inputs": [],
      "name": "owner",
      "outputs": [
        {
          "internalType": "address",
          "name": "",
          "type": "address"
        }
      ],
      "payable": false,
      "stateMutability": "view",
      "type": "function"
    },
    {
      "constant": false,
      "inputs": [],
      "name": "renounceOwnership",
      "outputs": [],
      "payable": false,
      "stateMutability": "nonpayable",
      "type": "function"
    },
    {
      "constant": false,
      "inputs": [
        {
          "internalType": "address",
          "name": "newOwner",
          "type": "address"
        }
      ],
      "name": "transferOwnership",
      "outputs": [],
      "payable": false,
      "stateMutability": "nonpayable",
      "type": "function"
    },
    {
      "constant": true,
      "inputs": [
        {
          "internalType": "address",
          "name": "",
          "type": "address"
        }
      ],
      "name": "votes",
      "outputs": [
        {
          "internalType": "uint256",
          "name": "",
          "type": "uint256"
        }
      ],
      "payable": false,
      "stateMutability": "view",
      "type": "function"
    },
    {
      "constant": false,
      "inputs": [
        {
          "internalType": "string",
          "name": "name",
          "type": "string"
        },
        {
          "internalType": "string",
          "name": "party",
          "type": "string"
        }
      ],
      "name": "addCandidate",
      "outputs": [],
      "payable": false,
      "stateMutability": "nonpayable",
      "type": "function"
    },
    {
      "constant": false,
      "inputs": [
        {
          "internalType": "uint16",
          "name": "_candidateId",
          "type": "uint16"
        }
      ],
      "name": "vote",
      "outputs": [],
      "payable": false,
      "stateMutability": "nonpayable",
      "type": "function"
    }
  ],
  "bytecode": "0x60806040526000600460006101000a81548161ffff021916908361ffff1602179055503480156200002f57600080fd5b50336000806101000a81548173ffffffffffffffffffffffffffffffffffffffff021916908373ffffffffffffffffffffffffffffffffffffffff1602179055506000809054906101000a900473ffffffffffffffffffffffffffffffffffffffff1673ffffffffffffffffffffffffffffffffffffffff16600073ffffffffffffffffffffffffffffffffffffffff167f8be0079c531659141344cd1fd0a4f28419497f9722a3daafe3b4186f6b6457e060405160405180910390a3620001686040518060400160405280600f81526020017f4e6172656e6472612044204d6f646900000000000000000000000000000000008152506040518060400160405280601681526020017f426861726174697961204a616e61746120506172747900000000000000000000815250620003da60201b60201c565b620001e46040518060400160405280600c81526020017f526168756c2047616e64686900000000000000000000000000000000000000008152506040518060400160405280601881526020017f496e6469616e204e6174696f6e616c20436f6e67726573730000000000000000815250620003da60201b60201c565b620002606040518060400160405280600e81526020017f416b68696c6573682059616461760000000000000000000000000000000000008152506040518060400160405280600f81526020017f53616d616a766164692050617274790000000000000000000000000000000000815250620003da60201b60201c565b620002dc6040518060400160405280600e81526020017f4d616d74612042616e61726a65650000000000000000000000000000000000008152506040518060400160405280601c81526020017f416c6c20496e646961205472696e616d6f6f6c20436f6e677265737300000000815250620003da60201b60201c565b620003586040518060400160405280600781526020017f4d617961767469000000000000000000000000000000000000000000000000008152506040518060400160405280601381526020017f426168756a616e2053616d616a20506172747900000000000000000000000000815250620003da60201b60201c565b620003d46040518060400160405280600481526020017f4e4f5441000000000000000000000000000000000000000000000000000000008152506040518060400160405280601181526020017f4e6f6e65206f66207468652061626f7665000000000000000000000000000000815250620003da60201b60201c565b62000629565b620003ea6200052360201b60201c565b620003f457600080fd5b6004600081819054906101000a900461ffff168092919060010191906101000a81548161ffff021916908361ffff160217905550506040518060800160405280838152602001828152602001600061ffff168152602001600460009054906101000a900461ffff1661ffff1663ffffffff1681525060026000600460009054906101000a900461ffff1661ffff1661ffff1681526020019081526020016000206000820151816000019080519060200190620004b29291906200057a565b506020820151816001019080519060200190620004d19291906200057a565b5060408201518160020160006101000a81548161ffff021916908361ffff16021790555060608201518160020160026101000a81548163ffffffff021916908363ffffffff1602179055509050505050565b60008060009054906101000a900473ffffffffffffffffffffffffffffffffffffffff1673ffffffffffffffffffffffffffffffffffffffff163373ffffffffffffffffffffffffffffffffffffffff1614905090565b828054600181600116156101000203166002900490600052602060002090601f016020900481019282601f10620005bd57805160ff1916838001178555620005ee565b82800160010185558215620005ee579182015b82811115620005ed578251825591602001919060010190620005d0565b5b509050620005fd919062000601565b5090565b6200062691905b808211156200062257600081600090555060010162000608565b5090565b90565b610cef80620006396000396000f3fe608060405234801561001057600080fd5b506004361061009e5760003560e01c80638f32d59b116100665780638f32d59b146102cb578063d8bff5a5146102ed578063ddb6e11614610345578063ef3183db14610377578063f2fde38b146104b05761009e565b806309eef43e146100a357806326541b56146100ff5780632d35a8a214610251578063715018a6146102775780638da5cb5b14610281575b600080fd5b6100e5600480360360208110156100b957600080fd5b81019080803573ffffffffffffffffffffffffffffffffffffffff1690602001909291905050506104f4565b604051808215151515815260200191505060405180910390f35b61024f6004803603604081101561011557600080fd5b810190808035906020019064010000000081111561013257600080fd5b82018360208201111561014457600080fd5b8035906020019184600183028401116401000000008311171561016657600080fd5b91908080601f016020809104026020016040519081016040528093929190818152602001838380828437600081840152601f19601f820116905080830192505050505050509192919290803590602001906401000000008111156101c957600080fd5b8201836020820111156101db57600080fd5b803590602001918460018302840111640100000000831117156101fd57600080fd5b91908080601f016020809104026020016040519081016040528093929190818152602001838380828437600081840152601f19601f820116905080830192505050505050509192919290505050610514565b005b610259610650565b604051808261ffff1661ffff16815260200191505060405180910390f35b61027f610664565b005b610289610734565b604051808273ffffffffffffffffffffffffffffffffffffffff1673ffffffffffffffffffffffffffffffffffffffff16815260200191505060405180910390f35b6102d361075d565b604051808215151515815260200191505060405180910390f35b61032f6004803603602081101561030357600080fd5b81019080803573ffffffffffffffffffffffffffffffffffffffff1690602001909291905050506107b4565b6040518082815260200191505060405180910390f35b6103756004803603602081101561035b57600080fd5b81019080803561ffff1690602001909291905050506107cc565b005b6103a76004803603602081101561038d57600080fd5b81019080803561ffff169060200190929190505050610982565b6040518080602001806020018561ffff1661ffff1681526020018463ffffffff1663ffffffff168152602001838103835287818151815260200191508051906020019080838360005b8381101561040b5780820151818401526020810190506103f0565b50505050905090810190601f1680156104385780820380516001836020036101000a031916815260200191505b50838103825286818151815260200191508051906020019080838360005b83811015610471578082015181840152602081019050610456565b50505050905090810190601f16801561049e5780820380516001836020036101000a031916815260200191505b50965050505050505060405180910390f35b6104f2600480360360208110156104c657600080fd5b81019080803573ffffffffffffffffffffffffffffffffffffffff169060200190929190505050610b00565b005b60016020528060005260406000206000915054906101000a900460ff1681565b61051c61075d565b61052557600080fd5b6004600081819054906101000a900461ffff168092919060010191906101000a81548161ffff021916908361ffff160217905550506040518060800160405280838152602001828152602001600061ffff168152602001600460009054906101000a900461ffff1661ffff1663ffffffff1681525060026000600460009054906101000a900461ffff1661ffff1661ffff16815260200190815260200160002060008201518160000190805190602001906105e1929190610c15565b5060208201518160010190805190602001906105fe929190610c15565b5060408201518160020160006101000a81548161ffff021916908361ffff16021790555060608201518160020160026101000a81548163ffffffff021916908363ffffffff1602179055509050505050565b600460009054906101000a900461ffff1681565b61066c61075d565b61067557600080fd5b600073ffffffffffffffffffffffffffffffffffffffff166000809054906101000a900473ffffffffffffffffffffffffffffffffffffffff1673ffffffffffffffffffffffffffffffffffffffff167f8be0079c531659141344cd1fd0a4f28419497f9722a3daafe3b4186f6b6457e060405160405180910390a360008060006101000a81548173ffffffffffffffffffffffffffffffffffffffff021916908373ffffffffffffffffffffffffffffffffffffffff160217905550565b60008060009054906101000a900473ffffffffffffffffffffffffffffffffffffffff16905090565b60008060009054906101000a900473ffffffffffffffffffffffffffffffffffffffff1673ffffffffffffffffffffffffffffffffffffffff163373ffffffffffffffffffffffffffffffffffffffff1614905090565b60036020528060005260406000206000915090505481565b600160003373ffffffffffffffffffffffffffffffffffffffff1673ffffffffffffffffffffffffffffffffffffffff16815260200190815260200160002060009054906101000a900460ff161561082357600080fd5b60008161ffff1611801561084f5750600460009054906101000a900461ffff1661ffff168161ffff1611155b61085857600080fd5b60018060003373ffffffffffffffffffffffffffffffffffffffff1673ffffffffffffffffffffffffffffffffffffffff16815260200190815260200160002060006101000a81548160ff021916908315150217905550600260008261ffff1661ffff168152602001908152602001600020600201600281819054906101000a900463ffffffff168092919060010191906101000a81548163ffffffff021916908363ffffffff160217905550508061ffff16600360003373ffffffffffffffffffffffffffffffffffffffff1673ffffffffffffffffffffffffffffffffffffffff168152602001908152602001600020819055508061ffff167fbe11c21a09e8958ce15cbfbc8abbb7c6667111f30e2f94474b2cb3adf3c83af760405160405180910390a250565b6002602052806000526040600020600091509050806000018054600181600116156101000203166002900480601f016020809104026020016040519081016040528092919081815260200182805460018160011615610100020316600290048015610a2e5780601f10610a0357610100808354040283529160200191610a2e565b820191906000526020600020905b815481529060010190602001808311610a1157829003601f168201915b505050505090806001018054600181600116156101000203166002900480601f016020809104026020016040519081016040528092919081815260200182805460018160011615610100020316600290048015610acc5780601f10610aa157610100808354040283529160200191610acc565b820191906000526020600020905b815481529060010190602001808311610aaf57829003601f168201915b5050505050908060020160009054906101000a900461ffff16908060020160029054906101000a900463ffffffff16905084565b610b0861075d565b610b1157600080fd5b610b1a81610b1d565b50565b600073ffffffffffffffffffffffffffffffffffffffff168173ffffffffffffffffffffffffffffffffffffffff161415610b5757600080fd5b8073ffffffffffffffffffffffffffffffffffffffff166000809054906101000a900473ffffffffffffffffffffffffffffffffffffffff1673ffffffffffffffffffffffffffffffffffffffff167f8be0079c531659141344cd1fd0a4f28419497f9722a3daafe3b4186f6b6457e060405160405180910390a3806000806101000a81548173ffffffffffffffffffffffffffffffffffffffff021916908373ffffffffffffffffffffffffffffffffffffffff16021790555050565b828054600181600116156101000203166002900490600052602060002090601f016020900481019282601f10610c5657805160ff1916838001178555610c84565b82800160010185558215610c84579182015b82811115610c83578251825591602001919060010190610c68565b5b509050610c919190610c95565b5090565b610cb791905b80821115610cb3576000816000905550600101610c9b565b5090565b9056fea265627a7a7231582045e449e0707fc6ac1ea1e678f2730e7567cdc6d1fd9ea0bc641b871db9575c2364736f6c63430005100032",
  "source": "pragma solidity >=0.4.22 <0.9.0;\n\nimport \"./safemath.sol\";\nimport \"./ownable.sol\";\n\ncontract Election is Ownable{\n\tusing SafeMath for uint256;\n\tusing SafeMath32 for uint32;\n\tusing SafeMath16 for uint16;\n\n\tstruct Candidate {\n        string name;\n        string party;\n        uint16 id;\n        uint32 voteCount;\n    }\n\n    mapping(address => bool) public hasVoted;\n    mapping(uint16 => Candidate) public candidates;\n    mapping(address => uint) public votes;\n\n    uint16 public candidatesCount = 0;\n\n    event votedEvent (\n        uint16 indexed _candidateId\n    );\n\n  \tconstructor () public {\n        addCandidate(\"Narendra D Modi\",\"Bharatiya Janata Party\");\n        addCandidate(\"Rahul Gandhi\",\"Indian National Congress\");\n        addCandidate(\"Akhilesh Yadav\",\"Samajvadi Party\");\n        addCandidate(\"Mamta Banarjee\",\"All India Trinamool Congress\");\n        addCandidate(\"Mayavti\",\"Bahujan Samaj Party\");\n        addCandidate(\"NOTA\",\"None of the above\");\n    }\n\n    function addCandidate (string memory name,string memory party) public onlyOwner {\n        candidatesCount ++;\n        candidates[candidatesCount] = Candidate(name, party, 0, candidatesCount);\n    }\n\n    function vote (uint16 _candidateId) public {\n        require(!hasVoted[msg.sender]);\n        require(_candidateId > 0 && _candidateId <= candidatesCount);\n        hasVoted[msg.sender] = true;\n        candidates[_candidateId].voteCount ++;\n        votes[msg.sender] = _candidateId;\n        emit votedEvent(_candidateId);\n    }\n}",
  "sourcePath": "/Users/amanyadav/Downloads/Votechain/contracts/Election.sol",
  "compiler": {
    "name": "solc",
    "version": "0.5.16+commit.9c3226ce.Emscripten.clang"
  },
  "schemaVersion": "3.4.1",
  "updatedAt": "2021-07-22T06:59:44.643Z",
  "networkType": "ethereum",
  "devdoc": {
    "methods": {
      "isOwner()": {
        "return": "true if `msg.sender` is the owner of the contract."
      },
      "owner()": {
        "return": "the address of the owner."
      },
      "renounceOwnership()": {
        "details": "Allows the current owner to relinquish control of the contract."
      },
      "transferOwnership(address)": {
        "details": "Allows the current owner to transfer control of the contract to a newOwner.",
        "params": {
          "newOwner": "The address to transfer ownership to."
        }
      }
    }
  },
  "userdoc": {
    "methods": {
      "renounceOwnership()": {
        "notice": "Renouncing to ownership will leave the contract without an owner. It will not be possible to call the functions with the `onlyOwner` modifier anymore."
      }
    }
  }
}